{
    "contractName": "Deposit",
    "abi": [
        {
            "inputs": [],
            "stateMutability": "nonpayable",
            "type": "constructor"
        },
        {
            "inputs": [],
            "name": "getBalance",
            "outputs": [
                {
                    "internalType": "uint256",
                    "name": "",
                    "type": "uint256"
                }
            ],
            "stateMutability": "view",
            "type": "function"
        },
        {
            "inputs": [],
            "name": "owner",
            "outputs": [
                {
                    "internalType": "address",
                    "name": "",
                    "type": "address"
                }
            ],
            "stateMutability": "view",
            "type": "function"
        },
        {
            "inputs": [
                {
                    "internalType": "address payable",
                    "name": "recipient",
                    "type": "address"
                },
                {
                    "internalType": "uint256",
                    "name": "amount",
                    "type": "uint256"
                }
            ],
            "name": "transferEther",
            "outputs": [
                {
                    "internalType": "bool",
                    "name": "",
                    "type": "bool"
                }
            ],
            "stateMutability": "nonpayable",
            "type": "function"
        },
        {
            "stateMutability": "payable",
            "type": "receive"
        }
    ],
    "bytecode": "608060405234801561001057600080fd5b50600080546001600160a01b031916331790556101fb806100326000396000f3fe6080604052600436106100385760003560e01c806305b1137b1461004457806312065fe0146100795780638da5cb5b1461009457600080fd5b3661003f57005b600080fd5b34801561005057600080fd5b5061006461005f36600461018d565b6100cc565b60405190151581526020015b60405180910390f35b34801561008557600080fd5b50604051478152602001610070565b3480156100a057600080fd5b506000546100b4906001600160a01b031681565b6040516001600160a01b039091168152602001610070565b600080546001600160a01b0316331461013c5760405162461bcd60e51b815260206004820152602860248201527f5472616e73666572206661696c65642c20796f7520617265206e6f7420746865604482015267206f776e6572212160c01b606482015260840160405180910390fd5b478211610183576040516001600160a01b0384169083156108fc029084906000818181858888f19350505050158015610179573d6000803e3d6000fd5b5060019050610187565b5060005b92915050565b600080604083850312156101a057600080fd5b82356001600160a01b03811681146101b757600080fd5b94602093909301359350505056fea26469706673582212201b716370d4b8a493aa776f546471990dbc54c5b295c3c683f7d8ba6ed0764d7664736f6c63430008090033",
    "sourcePath": "/Users/budlinville/Workspaces/ethereum/solidity/contracts/basics/balance-protected.sol",
    "compiler": {
        "name": "solc",
        "version": "0.8.9+commit.e5eed63a"
    },
    "functionHashes": {
        "getBalance()": "12065fe0",
        "owner()": "8da5cb5b",
        "transferEther(address,uint256)": "05b1137b"
    },
    "gasEstimates": {
        "creation": {
            "codeDepositCost": "101400",
            "executionCost": "24382",
            "totalCost": "125782"
        },
        "external": {
            "getBalance()": "179",
            "owner()": "2359",
            "transferEther(address,uint256)": "infinite"
        }
    }
}